:020000040800F2
:100000001008002089010008E5010008E50100084A
:10001000E5010008E5010008E50100080000000016
:10002000000000000000000000000000E5010008E2
:10003000E501000800000000E5010008E5010008F6
:10004000E5010008E5010008E5010008E5010008F8
:10005000E5010008E5010008E5010008E5010008E8
:10006000E5010008E5010008E5010008E5010008D8
:10007000E5010008E5010008E5010008E5010008C8
:10008000E5010008E5010008E5010008E5010008B8
:10009000E5010008E5010008E5010008E5010008A8
:1000A000E5010008E5010008E5010008E501000898
:1000B000E5010008E5010008E5010008E501000888
:1000C000E5010008E5010008E5010008E501000878
:1000D000E5010008E5010008E5010008E501000868
:1000E000E5010008E5010008E5010008E501000858
:1000F000E5010008E5010008E5010008E501000848
:10010000E5010008E5010008E5010008E501000837
:10011000E5010008E5010008E5010008E501000827
:10012000E5010008E5010008E5010008E501000817
:10013000E5010008E5010008E5010008E501000807
:10014000E5010008E5010008E5010008E5010008F7
:10015000E5010008E5010008E5010008E5010008E7
:10016000E5010008E5010008E5010008E5010008D7
:10017000E5010008E5010008E5010008E5010008C7
:10018000E5010008E501000880B582B000AF104B22
:100190007B60104B3B6007E03B681A1D3A607A6851
:1001A000111D796012681A603B680B4A9342F3D3C1
:1001B0000A480B494FF000028842B8BF40F8042BB0
:1001C000FADB00F013F800BF0837BD4680BD00BF62
:1001D000680D000800000020000000200000002042
:1001E0000C00002080B400AFFEE700BF80B58EB0E9
:1001F00000AF00F08DFB0121012000F00BF901217F
:10020000022000F007F901214FF4807000F020F97E
:1002100001214FF4007000F01BF902220123134367
:10022000FB62032387F83030002387F8333007F16F
:100230002C0319466E4800F0C1FA4FF480724FF457
:1002400000731343FB62012387F83030002387F8E3
:100250003230032387F83130002387F8333007F139
:100260002C031946634800F0A9FA4FF480739BB23F
:100270001946604800F030FB4FF400739BB21946FA
:100280005C4800F029FB0023FB6100233B62002354
:100290007B620023BB6207F11C03184600F04AF999
:1002A00000237B6000233B7201237B7200233B61B0
:1002B0000023FB6000237B6101233B763B1D194635
:1002C0004D4800F0E3F83B1D19464C4800F0DEF8BD
:1002D000042301220121484800F070F90121464819
:1002E00000F050F9042301220021444800F066F98F
:1002F0000121424800F046F93F4800F029FA00BFCA
:1003000002213D4800F040FA0346002BF8D03A485D
:1003100000F02EFA0346184600F058FC0246384B0F
:100320001A60364800F014FA00BF0221334800F08A
:100330002BFA0346002BF8D0304800F019FA034698
:10034000184600F043FC02462E4B1A602D4B1B68EA
:100350002D49184600F0FEFC0346002B10D04FF448
:1003600080739BB21946234800F0C4FA4FF400731F
:100370009BB219461F4800F0BDFA244B00221A60B8
:10038000204B1B682049184600F0C6FC0346002B92
:100390002CD01E4B1B68002B1AD14FF480739BB2DC
:1003A0001946144800F098FA4FF400739BB21946AE
:1003B000104800F091FA154B01221A6000237B636C
:1003C00002E07B6B01337B637B6B114A9342F8DD68
:1003D0004FF480739BB21946064800F08BFA4FF435
:1003E00000739BB21946034800F076FA84E700BF19
:1003F00000000240000402400020014000210140B2
:1004000000000020040000200000FA440800002042
:100410009F86010080B483B000AF78600B46FB700C
:10042000FB78002B06D00949084B1A6B7B681343F5
:100430000B6306E00549054B1A6B7B68DB431340F1
:100440000B6300BF0C37BD4680BC704700380240CC
:1004500080B483B000AF78600B46FB70FB78002B54
:1004600006D00949084B5A6C7B6813434B6406E07D
:100470000549054B5A6C7B68DB4313404B6400BF56
:100480000C37BD4680BC70470038024080B485B050
:1004900000AF786039600023FB600023FB727B684B
:1004A0005B68FB60FB6823F0407323F48073FB60A0
:1004B0003B681B791A023B681B681343FA681343B5
:1004C000FB607B68FA685A607B689B68FB60FA682F
:1004D000174B1340FB603B681A693B68DB681A43A3
:1004E0003B689B681A433B685B795B001343FA687F
:1004F0001343FB607B68FA689A607B68DB6AFB6089
:10050000FB6823F47003FB603B681B7D013BDAB2A0
:10051000FB7A1343FB72FB7A1B05FA681343FB60FB
:100520007B68FA68DA6200BF1437BD4680BC70474A
:10053000FDF7FFC080B485B000AF78600023FB609A
:100540000E4B5B68FB60FA680D4B1340FB607B68E9
:100550001A687B685B681A437B689B681A437B68F0
:10056000DB681343FA681343FB60044AFB6853607B
:1005700000BF1437BD4680BC704700BF0023014058
:10058000E030FCFF80B483B000AF78600B46FB70B6
:10059000FB78002B06D07B689B6843F001027B68E8
:1005A0009A6005E07B689B6823F001027B689A6093
:1005B00000BF0C37BD4680BC704700BF80B485B01B
:1005C00000AF7860084611461A460346FB700B469A
:1005D000BB7013467B700023FB600023BB60FB787D
:1005E000092B23D97B68DB68FB60FB78A3F10A0247
:1005F00013465B001344072202FA03F3BB60BB6897
:10060000DB43FA681340FB607978FB78A3F10A02B8
:1006100013465B00134401FA03F3BB60FA68BB683E
:100620001343FB607B68FA68DA601EE07B681B6935
:10063000FB60FA7813465B001344072202FA03F3C7
:10064000BB60BB68DB43FA681340FB607978FA78DB
:1006500013465B00134401FA03F3BB60FA68BB68FE
:100660001343FB607B68FA681A61BB78062B21D8BC
:100670007B685B6BFB60BB785A1E13469B00134480
:100680001F2202FA03F3BB60BB68DB43FA68134026
:10069000FB60F978BB785A1E13469B00134401FA9D
:1006A00003F3BB60FA68BB681343FB607B68FA68BE
:1006B0005A6347E0BB780C2B21D87B681B6BFB602F
:1006C000BB78DA1F13469B0013441F2202FA03F380
:1006D000BB60BB68DB43FA681340FB60F978BB780A
:1006E000DA1F13469B00134401FA03F3BB60FA6858
:1006F000BB681343FB607B68FA681A6322E07B687F
:10070000DB6AFB60BB78A3F10D0213469B00134428
:100710001F2202FA03F3BB60BB68DB43FA68134095
:10072000FB60F978BB78A3F10D0213469B001344DC
:1007300001FA03F3BB60FA68BB681343FB607B6894
:10074000FA68DA6200BF1437BD4680BC704700BF4C
:1007500080B483B000AF78607B689B6843F08042D0
:100760007B689A6000BF0C37BD4680BC704700BFF5
:1007700080B483B000AF78607B68DB6C9BB21846B6
:100780000C37BD4680BC704780B485B000AF786040
:100790000B46FB700023FB737B681A68FB781340E1
:1007A000002B02D00123FB7301E00023FB73FB7BD2
:1007B00018461437BD4680BC704700BF80B487B070
:1007C00000AF7860396000237B6100233B61002328
:1007D000FB6000237B6176E001227B6902FA03F370
:1007E0003B613B681A683B691340FB60FA683B69F0
:1007F0009A4265D17B681A687B695B00032101FA24
:1008000003F3DB431A407B681A607B681A683B6815
:100810001B7919467B695B0001FA03F31A437B6875
:100820001A603B681B79012B03D03B681B79022BB4
:100830002ED17B689A687B695B00032101FA03F380
:10084000DB431A407B689A607B689A683B685B79F7
:1008500019467B695B0001FA03F31A437B689A60CF
:100860007B685A687B699BB2194601238B40DB4346
:100870001A407B685A607B685B683A6892791146D7
:100880007A6992B201FA02F292B21A437B685A6014
:100890007B68DA687B699BB25B00032101FA03F392
:1008A000DB431A407B68DA607B68DA683B68DB7997
:1008B00019467B695B0001FA03F31A437B68DA602F
:1008C0007B6901337B617B690F2B85D900BF1C37A6
:1008D000BD4680BC704700BF80B483B000AF786075
:1008E0000B467B807B687A881A8300BF0C37BD4635
:1008F00080BC704780B483B000AF78600B467B80CB
:100900007B687A885A8300BF0C37BD4680BC70472D
:1009100080B500AF124A124B1B6843F0010313600D
:100920000F4B00229A600E4A0D4B1B6823F0847314
:1009300023F4803313600A4B0A4A5A60084A084B72
:100940001B6823F480231360054B0022DA6000F05B
:100950000DF8054B4FF000629A6000BF80BD00BFEC
:10096000003802401030002400ED00E080B483B075
:1009700000AF00237B6000233B60354A344B1B688B
:1009800043F480331360324B1B6803F400333B6045
:100990007B6801337B603B68002B03D17B68B3F538
:1009A000A06FF0D12A4B1B6803F40033002B02D058
:1009B00001233B6001E000233B603B68012B42D1F7
:1009C000234A234B1B6C43F080531364214A214B71
:1009D0001B6843F4804313601D4A1D4B9B68936062
:1009E0001B4A1B4B9B6843F400439360184A184B07
:1009F0009B6843F4A0539360154B174A5A60144AFE
:100A0000134B1B6843F08073136000BF104B1B68CF
:100A100003F00073002BF9D0104B40F205621A600E
:100A20000B4A0B4B9B6823F003039360084A084B67
:100A30009B6843F00203936000BF054B9B6803F083
:100A40000C03082BF9D100BF0C37BD4680BC7047A2
:100A5000003802400070004019544007003C02403A
:100A600080F0004002E000BF81F0004142001FBF63
:100A70005FEA410392EA030F7FEA226C7FEA236C6C
:100A80006AD04FEA1262D2EB1363C1BFD218414061
:100A900048404140B8BF5B42192B88BF704710F0F7
:100AA000004F40F4000020F07F4018BF404211F09A
:100AB000004F41F4000121F07F4118BF494292EA02
:100AC000030F3FD0A2F1010241FA03FC10EB0C002E
:100AD000C3F1200301FA03F100F0004302D54942BB
:100AE00060EB4000B0F5000F13D3B0F1807F06D368
:100AF00040084FEA310102F10102FE2A51D2B1F160
:100B0000004F40EBC25008BF20F0010040EA030054
:100B10007047490040EB000010F4000FA2F1010201
:100B2000EDD1B0FA80FCACF1080CB2EB0C0200FA8B
:100B30000CF0AABF00EBC25052421843BCBFD040D9
:100B40001843704792F0000F81F4000106BF80F453
:100B500000000132013BB5E74FEA41037FEA226C16
:100B600018BF7FEA236C21D092EA030F04D092F0E1
:100B7000000F08BF0846704790EA010F1CBF002015
:100B8000704712F07F4F04D1400028BF40F0004072
:100B9000704712F100723CBF00F50000704700F092
:100BA000004343F0FE4040F4000070477FEA2262B9
:100BB00016BF08467FEA23630146420206BF5FEA8A
:100BC000412390EA010F40F4800070474FF000038A
:100BD00004E000BF10F0004348BF40425FEA000C51
:100BE00008BF704743F0964301464FF000001CE0F9
:100BF00050EA010208BF70474FF000030AE000BF4F
:100C000050EA010208BF704711F0004302D540428C
:100C100061EB41015FEA010C02BF844601460020FE
:100C200043F0B64308BFA3F18053A3F50003BCFA19
:100C30008CF2083AA3EBC25310DB01FA02FC6344C6
:100C400000FA02FCC2F12002BCF1004F20FA02F2CD
:100C500043EB020008BF20F00100704702F12002C0
:100C600001FA02FCC2F1200250EA4C0021FA02F221
:100C700043EB020008BF20EADC7070474FF0FF3CF6
:100C800006E000BF4FF0010C02E000BF4FF0010C86
:100C90004DF804CD4FEA40024FEA41037FEA226C4F
:100CA00018BF7FEA236C11D001B052EA530C18BF71
:100CB00090EA010F58BFB2EB030088BFC81738BFD6
:100CC0006FEAE17018BF40F0010070477FEA226CC4
:100CD00002D15FEA402C05D17FEA236CE4D15FEAC0
:100CE000412CE1D05DF8040B704700BF84460846F4
:100CF0006146FFE70FB5FFF7C9FF002848BF10F1B5
:100D0000000F0FBD4DF808EDFFF7F4FF0CBF0120F9
:100D100000205DF808FB00BF4DF808EDFFF7EAFF83
:100D200034BF012000205DF808FB00BF4DF808ED3E
:100D3000FFF7E0FF94BF012000205DF808FB00BF33
:100D40004DF808EDFFF7D2FF94BF012000205DF8B9
:100D500008FB00BF4DF808EDFFF7C8FF34BF0120C6
:080D600000205DF808FB00BF54
:0400000508000000EF
:00000001FF
